100000001Bundesbank                                                10591Berlin                             BBk Berlin                 20100MARKDEF110009011380U000000000
100100101Postbank                                                  10916Berlin                             Postbank Berlin            10010PBNKDEFFXXX24000538U000000000
100101111SEB                                                       10789Berlin                             SEB Berlin                 25805ESSEDE5F10013005361U000000000
100104241Aareal Bank                                               10666Berlin                             Aareal Bank                26910AARBDE5W10009004795U000000000
